:100000000C943E000C9448000C9448000C9448005A
:100010000C9448000C9448000C9448000C94480040
:100020000C9448000C9448000C9448000C94480030
:100030000C9448000C9448000C9448000C94480020
:100040000C9448000C9448000C9448000C94480010
:100050000C9448000C9448000C9448000C94480000
:100060000C9448000C9448000C9448000C944800F0
:100070000C9448000C9448000C94480011241FBEB6
:10008000CFEFD8E0DEBFCDBF0E944A000C945E00E7
:100090000C94000084B184B950E440E220E931E0DE
:1000A00085B1852785B985B1842785B988E893E12D
:1000B000F9013197F1F70197D9F7F2CFF894FFCF13
:00000001FF
