:100000000C9444000C9459000C9459000C94590021
:100010000C9459000C9459000C9459000C945900FC
:100020000C9459000C9459000C9459000C945900EC
:100030000C9459000C9459000C9459000C945900DC
:100040000C9459000C9459000C9459000C945900CC
:100050000C9459000C9459000C9459000C945900BC
:100060000C9459000C9459000C9459000C945900AC
:100070000C9459000C9459000C9459006364696EF7
:100080006F70737578585B0011241FBECFEFD8E0F6
:10009000DEBFCDBF12E0A0E0B1E0E8E1FEE102C0CA
:1000A00005900D92A831B107D9F70E94B1020C94C6
:1000B0000A0F0C9400008F929F92AF92BF92CF9242
:1000C000DF92EF92FF920F931F930E94090380E447
:1000D000C82E8CE9D82EC6010197F1F70E940F03B4
:1000E0004B015C01C6010197F1F70E940F037B01F0
:1000F0008C01C6010197F1F70E940F03E80CF91C6F
:100100000A1D1B1DE60EF71E081F191FC801B701A7
:1001100023E030E040E050E00E94EF08CA01B9015E
:100120001F910F91FF90EF90DF90CF90BF90AF9015
:100130009F908F900895EF92FF920F931F93139AC1
:100140000E945B007B018C0188EE93E020E931E0A6
:10015000F9013197F1F70197D9F713980E945B00E5
:1001600020E030E0E61AF70A080B190B81E4E816E4
:100170008FE1F80680E0080780E0180710F021E022
:1001800030E0C9011F910F91FF90EF9008958F9279
:100190009F92AF92BF92CF92DF92EF92FF920F9316
:1001A0001F930E94060390E4C92E9CE9D92EC60134
:1001B0000197F1F70E940F034B015C01C601019703
:1001C000F1F70E940F037B018C01C6010197F1F743
:1001D0000E940F03E80CF91C0A1D1B1DE60EF71EFA
:1001E000081F191FC801B7010E94810626E636E6DE
:1001F00046E850E40E9451050E947B039B01AC013C
:10020000CA011F910F91FF90EF90DF90CF90BF90A8
:10021000AF909F908F9008958F929F92AF92BF92D0
:10022000CF92DF92EF92FF920F931F930E940303EE
:1002300020E4C22E2CE9D22EC6010197F1F70E94CC
:100240000F034B015C01C6010197F1F70E940F03F8
:100250007B018C01C6010197F1F70E940F03E80CA6
:10026000F91C0A1D1B1DE60EF71E081F191FC801E9
:10027000B70123E030E040E050E00E94EF08CA01FF
:10028000B9011F910F91FF90EF90DF90CF90BF9039
:10029000AF909F908F9008958F929F92AF92BF9250
:1002A000CF92DF92EF92FF920F931F930E94000371
:1002B00030E4C32E3CE9D32EC6010197F1F70E942A
:1002C0000F034B015C01C6010197F1F70E940F0378
:1002D0007B018C01C6010197F1F70E940F03E80C26
:1002E000F91C0A1D1B1DE60EF71E081F191FC80169
:1002F000B7010E94810623E333E343E550E40E9403
:1003000051050E947B039B01AC01CA011F910F9113
:10031000FF90EF90DF90CF90BF90AF909F908F9025
:1003200008958F929F92AF92BF92CF92DF92EF92F9
:10033000FF920F931F93DF93CF93CDB7DEB76A97EA
:100340000FB6F894DEBF0FBECDBF1F82139A0E9476
:100350004C014B015C010E940C017B018C010E944D
:10036000C70013982DB73EB7205130400FB6F89410
:100370003EBF0FBE2DBFEDB7FEB7319647E0C42E8E
:10038000D12CCC0EDD1EADB7BEB71296DC92CE924C
:10039000119720E031E03383228384829582A68204
:1003A000B782E086F1860287138764877587868720
:1003B00097870E9448092DB73EB72A5F3F4F0FB677
:1003C000F8943EBF0FBE2DBFEDB7FEB73196ADB767
:1003D000BEB71296DC92CE92119789E091E093839A
:1003E0008283CE01019695838483CE010396978301
:1003F0008683CE010596918780870E946C0900E074
:1004000010E02DB73EB7265F3F4F0FB6F8943EBFC2
:100410000FBE2DBF760108C0F701E00FF11F8081EC
:100420000E9442030F5F1F4FF70101900020E9F780
:100430003197EE19FF090E171F0770F38AE00E942B
:10044000420329813A81C9018D5F93458B5A9D40B2
:10045000E8F48D819E81A9E689379A07BCF0805324
:100460009547A4F485B190E2892785B988E893E19E
:1004700020E931E0F9013197F1F70197D9F785B11A
:1004800090E2892785B922E030E04FC0C90181554B
:1004900096448B5A9D4028F58D819E81A5E5813F2C
:1004A0009A07FCF0885A9146E4F485B190E48927D4
:1004B00085B985B190E2892785B988E893E120E97B
:1004C00031E0F9013197F1F70197D9F785B190E261
:1004D000892785B985B190E4892785B923E030E083
:1004E00024C0215A3F402B5A3D40E8F48D819E8123
:1004F000AEE381389A07BCF080559644A4F485B1E8
:1005000090E4892785B988E893E120E931E0F90191
:100510003197F1F70197D9F785B190E4892785B92B
:1005200021E030E002C020E030E0C9016A960FB659
:10053000F894DEBF0FBECDBFCF91DF911F910F9119
:10054000FF90EF90DF90CF90BF90AF909F908F90F3
:1005500008950E94FC020E940C03209A219A229A7C
:1005600008950F931F93CF93DF930E94A9020E94D7
:10057000360384B184B9C0E0D0E000E911E00E9404
:100580009B00892B89F10E949101C130D10541F175
:10059000C230D1051CF4209741F0F1CFC230D10513
:1005A00049F0C330D10559F70EC00297E9F4C2E013
:1005B000D0E01AC08330910519F4C3E0D0E014C034
:1005C000019791F40FC08130910539F481E40E94C4
:1005D000420387E40E94420307C0029729F402C045
:1005E000019711F0C0E0D0E084EF91E0F80131977D
:1005F000F1F70197D9F7C3CF0B9A0C9A0B9A08958C
:10060000139814980895139A149A08951398149AA5
:100610000895139A14980895169A119808950299B6
:1006200002C0029BFECF0299FECF1092850010926D
:10063000840081E080938100029BFECF10928100B4
:10064000609184007091850080E090E00E948106B6
:100650009B01AC0160E074E284EF9AE40E945105D2
:100660000E947B039B01AC01CA0108951092C50052
:1006700087E68093C40088E18093C10086E0809380
:10068000C2000895982F8091C00085FFFCCF909301
:10069000C60008958091C00087FFFCCF8091C600FE
:1006A0000895FC0107C08091C00085FFFCCF319602
:1006B0009093C60090819923B1F70895AC0120E092
:1006C00030E0FA01E20FF31FE0818091C00085FF66
:1006D000FCCFE093C6002F5F3F4F2530310589F7EF
:1006E0000895982F8091C00085FFFCCF9093C6009D
:1006F00080E090E00895EF92FF920F931F937B01AB
:100700008C0120E030E040E05FE40E94FD0588239A
:100710008CF0C801B70120E030E040E05FE40E94C7
:10072000F3040E942D069B01AC0120503040404054
:10073000504806C0C801B7010E942D069B01AC01BC
:10074000B901CA011F910F91FF90EF900895A0E0A9
:10075000B0E0EDEAF3E00C941109DC012B01FA01A1
:100760009C91923008F439C1EB018881823008F401
:1007700033C1943069F4843009F02FC111969C91F3
:1007800011978981981709F428C1A0E1B1E025C12A
:10079000843009F421C18230A9F4923009F01DC1DE
:1007A0009A01AD0188E0EA010990AE01E9010992E0
:1007B0009E018150C1F7E201898111969C918923A4
:1007C000818308C1923009F407C112962D903C90A4
:1007D0001397EB018A819B811496AD90BD90CD90CB
:1007E000DC901797EC80FD800E811F819101281B02
:1007F000390BB90137FF04C066277727621B730BDB
:10080000603271050CF061C0121613066CF53701E9
:100810004801062E04C096948794779467940A94AE
:10082000D2F721E030E040E050E004C0220F331F57
:10083000441F551F6A95D2F7215030404040504028
:100840002E213F214023512321153105410551051A
:1008500021F021E030E040E050E079018A01E62813
:10086000F728082919293CC0232BD1F1260E371E61
:1008700035014601062E04C09694879477946794B8
:100880000A94D2F721E030E040E050E004C0220FAB
:10089000331F441F551F6A95D2F721503040404006
:1008A00050402A213B214C215D2121153105410574
:1008B000510521F021E030E040E050E059016A01AB
:1008C000A628B728C828D9280BC0821593052CF074
:1008D0001C01AA24BB24650103C0EE24FF24870168
:1008E00011969C91D20111968C91981709F445C0EC
:1008F000992339F0A80197012A193B094C095D0990
:1009000006C0A60195012E193F09400B510B57FD5A
:1009100008C0118233822282248335834683578321
:100920001DC081E081833382228288279927DC01E0
:10093000821B930BA40BB50B84839583A683B7838B
:100940000DC0220F331F441F551F24833583468358
:100950005783828193810197938382832481358198
:1009600046815781DA01C9010197A109B1098F5F59
:100970009F4FAF4FBF4328F30BC091833382228236
:10098000EA0CFB1C0C1D1D1DE482F58206831783F7
:1009900083E08083248135814681578157FF1AC0C7
:1009A000C901AA2797FDA095BA2F81709070A070F9
:1009B000B0705695479537952795822B932BA42B8E
:1009C000B52B84839583A683B78382819381019617
:1009D00093838283DF0101C0D201CD01CDB7DEB7A1
:1009E000E2E10C942D09A0E2B0E0E9EFF4E00C9410
:1009F0001D0969837A838B839C832D833E834F8378
:100A00005887E9E0EE2EF12CEC0EFD1ECE0101968A
:100A1000B7010E941E088E010F5E1F4FCE01059682
:100A2000B8010E941E088A8991E089278A8BC70134
:100A3000B801AE01475E5F4F0E94A7030E944907BD
:100A4000A096E6E00C943909A0E2B0E0EAE2F5E015
:100A50000C941D0969837A838B839C832D833E8349
:100A60004F835887F9E0EF2EF12CEC0EFD1ECE01DE
:100A70000196B7010E941E088E010F5E1F4FCE0126
:100A80000596B8010E941E08C701B801AE01475E75
:100A90005F4F0E94A7030E944907A096E6E00C94CE
:100AA0003909A8E1B0E0E7E5F5E00C94190969839C
:100AB0007A838B839C832D833E834F835887B9E051
:100AC000EB2EF12CEC0EFD1ECE010196B7010E941B
:100AD0001E088E010F5E1F4FCE010596B8010E94C1
:100AE0001E082985223008F47EC03989323010F47E
:100AF000B8017CC08A859A8989278A87243011F0B9
:100B0000223031F4231709F06EC060E171E06EC04D
:100B1000343039F41D861E861F86188A1C861B8673
:100B200004C0323021F484E08987B7015FC02B858F
:100B30003C858B899C89281B390B3C872B87ED844E
:100B4000FE840F851889AD88BE88CF88D88CEA14BA
:100B5000FB040C051D0540F4EE0CFF1C001F111FCB
:100B6000215030403C872B8720E030E040E050E0CF
:100B700080E090E0A0E0B0E460E070E0EA14FB0404
:100B80000C051D0540F0282B392B4A2B5B2BEA184E
:100B9000FB080C091D09B695A79597958795EE0C4E
:100BA000FF1C001F111F6F5F7F4F6F31710531F701
:100BB000DA01C9018F779070A070B0708034910510
:100BC000A105B10561F427FD0AC0E114F104010596
:100BD000110529F0205C3F4F4F4F5F4F20782D8744
:100BE0003E874F87588BBE01675F7F4FCB010E94C6
:100BF00049076896EAE00C943509A8E1B0E0E3E023
:100C0000F6E00C941D0969837A838B839C832D8382
:100C10003E834F83588789E0E82EF12CEC0EFD1EB1
:100C2000CE010196B7010E941E088E010F5E1F4F74
:100C3000CE010596B8010E941E088985823040F0D9
:100C40008989823028F0C701B8010E94960801C046
:100C50008FEF6896E6E00C943909ACE0B0E0E3E38E
:100C6000F6E00C94210969837A838B839C83CE01FF
:100C70000196BE016B5F7F4F0E941E088D818230FE
:100C800061F1823050F1843021F48E81882351F15A
:100C90002EC02F81388537FD20C06E812F31310560
:100CA0001CF06623F9F023C08EE190E0821B930BC9
:100CB00029853A854B855C8504C0569547953795BF
:100CC00027958A95D2F76623B1F0509540953095D7
:100CD00021953F4F4F4F5F4F0EC020E030E040E086
:100CE00050E009C02FEF3FEF4FEF5FE704C020E077
:100CF00030E040E050E8B901CA012C96E2E00C94E3
:100D00003D09A8E0B0E0E7E8F6E00C9419097B01A2
:100D10008C01611571058105910519F482E08983C3
:100D200060C083E089838EE1C82ED12CDC82CB8227
:100D3000ED82FE820F831887C801B7010E94FA0670
:100D4000FC013197F7FF3BC0222733272E1B3F0BB7
:100D500057016801022E04C0D694C794B794A79493
:100D60000A94D2F740E050E060E070E081E090E06B
:100D7000A0E0B0E004C0880F991FAA1FBB1F2A95EE
:100D8000D2F70197A109B1098E219F21A023B12398
:100D90000097A105B10521F041E050E060E070E06E
:100DA0004A295B296C297D294D835E836F8378876F
:100DB0008EE190E08E1B9F0B9C838B8312C030973B
:100DC00081F00E2E04C0EE0CFF1C001F111F0A94B0
:100DD000D2F7ED82FE820F831887CE1ADF0ADC82FB
:100DE000CB821A82CE0101960E9449072896EAE03A
:100DF0000C943509EF92FF920F931F937B018C01A6
:100E000080E0E81680E0F80681E0080780E0180737
:100E100088F48FEFE816F1040105110531F028F090
:100E200088E090E0A0E0B0E017C080E090E0A0E0B3
:100E3000B0E012C080E0E81680E0F80680E0080725
:100E400081E0180728F088E190E0A0E0B0E004C05D
:100E500080E190E0A0E0B0E020E230E040E050E04F
:100E6000281B390B4A0B5B0B04C016950795F794AA
:100E7000E7948A95D2F7F701E85EFE4F8081281B40
:100E8000310941095109C9011F910F91FF90EF905C
:100E90000895DF92EF92FF920F931F93FC01E4807D
:100EA000F58006811781D1808081823048F480E00E
:100EB00090E0A0E1B0E0E82AF92A0A2B1B2BA5C09C
:100EC000843009F49FC0823021F4EE24FF2487018E
:100ED00005C0E114F1040105110519F4E0E0F0E0AA
:100EE00096C0628173819FEF623879070CF05BC016
:100EF00022E83FEF261B370B2A3131052CF020E08A
:100F000030E040E050E02AC0B801A701022E04C042
:100F100076956795579547950A94D2F781E090E0CA
:100F2000A0E0B0E004C0880F991FAA1FBB1F2A953C
:100F3000D2F70197A109B1098E219F21A023B123E6
:100F40000097A105B10521F081E090E0A0E0B0E0BC
:100F50009A01AB01282B392B4A2B5B2BDA01C901F3
:100F60008F779070A070B07080349105A105B105A5
:100F700039F427FF09C0205C3F4F4F4F5F4F04C03B
:100F8000215C3F4F4F4F5F4FE0E0F0E02030A0E0AA
:100F90003A07A0E04A07A0E45A0710F0E1E0F0E0C9
:100FA00079018A0127C06038710564F5FB01E158B9
:100FB000FF4FD801C7018F779070A070B070803458
:100FC0009105A105B10539F4E7FE0DC080E490E07C
:100FD000A0E0B0E004C08FE390E0A0E0B0E0E80E55
:100FE000F91E0A1F1B1F17FF05C016950795F794DA
:100FF000E794319687E016950795F794E7948A95DC
:10100000D1F705C0EE24FF248701EFEFF0E06E2F4B
:10101000679566276795902F9F77D794DD24D7949F
:101020008E2F8695492F462B582F5D29B701CA016F
:101030001F910F91FF90EF90DF900895FC01DB016D
:10104000408151812281622F6F7770E0221F222719
:10105000221F9381892F880F822B282F30E0991F20
:101060009927991F11969C93119721153105A9F580
:10107000411551056105710511F482E037C082E820
:101080009FEF13969C938E9312979A01AB0167E0A2
:10109000220F331F441F551F6A95D1F783E08C93AD
:1010A0000DC0220F331F441F551F12968D919C9126
:1010B0001397019713969C938E931297203080E09C
:1010C000380780E0480780E4580758F314962D93BA
:1010D0003D934D935C93179708952F3F310579F415
:1010E000411551056105710519F484E08C9308954B
:1010F00064FF03C081E08C9312C01C9210C02F5774
:10110000304013963C932E93129783E08C9387E0A4
:10111000440F551F661F771F8A95D1F77064149688
:101120004D935D936D937C93179708951F93DC0106
:10113000FB019C91923008F447C08081823008F412
:1011400043C0943051F411961C91843099F58181FB
:10115000682F70E0611B71093FC0843021F092302C
:1011600031F48230B9F18181882389F12DC0119643
:101170001C9111978230F1F081811817D9F41296E1
:101180002D913C911397828193818217930794F05C
:1011900028173907BCF014968D919D910D90BC9144
:1011A000A02D2481358146815781281739074A07A8
:1011B0005B0718F4112341F00AC082179307A407B4
:1011C000B50740F4112319F061E070E005C06FEF3E
:1011D0007FEF02C060E070E0CB011F910895A1E2B3
:1011E0001A2EAA1BBB1BFD010DC0AA1FBB1FEE1FA1
:1011F000FF1FA217B307E407F50720F0A21BB30BEC
:10120000E40BF50B661F771F881F991F1A9469F767
:1012100060957095809590959B01AC01BD01CF01C3
:1012200008952F923F924F925F926F927F928F928A
:101230009F92AF92BF92CF92DF92EF92FF920F9365
:101240001F93CF93DF93CDB7DEB7CA1BDB0B0FB66F
:10125000F894DEBF0FBECDBF09942A88398848882C
:101260005F846E847D848C849B84AA84B984C884C2
:10127000DF80EE80FD800C811B81AA81B981CE0FB9
:10128000D11D0FB6F894DEBF0FBECDBFED0108959E
:10129000AEE0B0E0EEE4F9E00C941F090D891E8980
:1012A00086E08C831A8309838FEF9FE79E838D836B
:1012B0009E01275E3F4FCE0101966F89788DA9016F
:1012C0000E9486092F813885020F131FF8011082B2
:1012D0002E96E4E00C943B09AEE0B0E0E2E7F9E0E2
:1012E0000C94210985E08C838B899C899A8389835E
:1012F0009E01295E3F4FCE0101966D897E89A9012D
:101300000E94E70C2E96E2E00C943D09ABE0B0E0C1
:10131000ECE8F9E00C9411093C012B015A01FC01A5
:1013200017821682838181FD03C06FEF7FEFC6C1F4
:101330009AE0892E1E010894211C311CF30123819F
:10134000F20123FD859123FF81912F01882309F468
:10135000B2C1853239F423FD859123FF81912F019C
:10136000853229F490E0B3010E94630EE7CF982FF5
:10137000FF24EE249924FFE1FF15D0F09B3269F0A1
:101380009C3228F4903259F0933291F40EC09D3281
:1013900049F0903369F441E024C052E0F52A84E03A
:1013A000F82A28C098E0F92A25C0E0E1FE2A22C0E8
:1013B000F7FC29C0892F80538A3070F4F6FE05C0EF
:1013C000989C902C1124980E15C0E89CE02C1124B8
:1013D000E80EF0E2FF2A0EC09E3229F4F6FC6BC143
:1013E00040E4F42A07C09C3619F450E8F52A02C0FC
:1013F000983649F4F20123FD959123FF91912F0135
:10140000992309F0B8CF892F8554833018F0805282
:10141000833038F444E050E0A40EB51E5FE35983F6
:101420000FC0933631F0933779F0933509F056C0F9
:1014300020C0F5018081898342E050E0A40EB51EF2
:10144000610101E010E012C0F501C080D180F6FC1E
:1014500003C06FEF7FEF02C0692D70E042E050E003
:10146000A40EB51EC6010E94160E8C015FE7F52280
:1014700014C0F501C080D180F6FC03C06FEF7FEF90
:1014800002C0692D70E042E050E0A40EB51EC60116
:101490000E940B0E8C0150E8F52AF3FE07C01AC01B
:1014A00080E290E0B3010E94630EEA948E2D90E0FA
:1014B00008171907A8F30EC0F601F7FC8591F7FE8F
:1014C00081916F0190E0B3010E94630EE110EA94F4
:1014D000015010400115110579F7EAC0943611F05A
:1014E000993669F5F7FE08C0F50120813181428106
:1014F000538184E090E00AC0F501808191819C01D4
:10150000442737FD4095542F82E090E0A80EB91E85
:101510009FE6F92257FF09C05095409530952195D7
:101520003F4F4F4F5F4FE0E8FE2ACA01B901A101CA
:101530002AE030E00E94A90ED82ED21840C095377C
:1015400029F41F2D1F7E2AE030E01DC01F2D197FBA
:101550009F3661F0903720F4983509F0ACC00FC089
:10156000903739F0983709F0A6C004C028E030E081
:101570000AC0106114FD146020E130E004C014FDC5
:10158000166020E132E017FF08C0F501608171812B
:101590008281938144E050E008C0F501808191810F
:1015A000BC0180E090E042E050E0A40EB51EA10135
:1015B0000E94A90ED82ED2188FE7F82EF122F6FE3F
:1015C0000BC05EEFF522D91438F4F4FE07C0F2FC2C
:1015D00005C08FEEF82202C01D2D01C0192DF4FEAA
:1015E0000DC0FE01ED0DF11D8081803319F499EEDF
:1015F000F92208C01F5FF2FE05C003C08F2D867858
:1016000009F01F5F0F2DF3FC14C0F0FE0FC01E1574
:1016100010F09D2C0BC09D2C9E0C911A1E2D06C007
:1016200080E290E0B3010E94630E1F5F1E15C0F3BD
:1016300004C01E1510F4E11A01C0EE2404FF0FC00F
:1016400080E390E0B3010E94630E02FF1DC001FD24
:1016500003C088E790E00EC088E590E00BC0802FC3
:10166000867891F001FF02C08BE201C080E2F7FCB6
:101670008DE290E0B3010E94630E06C080E390E02B
:10168000B3010E94630E9A94D914C0F3DA94F10165
:10169000ED0DF11D808190E0B3010E94630EDD200D
:1016A000A9F706C080E290E0B3010E94630EEA94BD
:1016B000EE20C1F743CEF30166817781CB012B96F3
:1016C000E2E10C942D09FC0120FD08C023FD05C0BA
:1016D00022FF02C073836283518340830895EF9297
:1016E000FF920F931F9344FF02C033E011C046FFE7
:1016F00002C034E00DC0DB01FC01AA0FBB1FEE1FCE
:10170000FF1F1094D1F76A0F7B1F8E1F9F1F31E0C0
:10171000660F771F881F991F3150D1F77B018C010D
:10172000E20EF11C011D111DA8019701B701CA01AC
:101730001F910F91FF90EF9008950F931F93CF93F8
:10174000DF938C01C8010E94210EEC0197FD08C0B7
:101750000E94F80D892BB1F7CE01B8010E948F0EBF
:10176000CE01DF91CF911F910F910895A0E0B0E0DD
:10177000ECEBFBE00C941909EC01C62E5A01122F78
:101780000E94210EAC018B3219F08D3251F4106899
:10179000CA9409F46DC0CE010E94210EAC0197FDE0
:1017A00067C06DEFD62ED1228D2D807301F54033A9
:1017B000F1F4CA9409F447C0CE010E94210EAC0195
:1017C00097FD41C082E0D82A483711F0483559F4D6
:1017D00080E4D82ACA94B9F1CE010E94210EAC014E
:1017E00099232CF430C0D6FC02C080E1D82AEE2424
:1017F000FF248701242F2053283088F0D4FC09C00F
:101800002A3068F0D6FE05C02F7D822F81518630A8
:1018100028F0CA01BE010E948F0E12C02750C801D5
:10182000B7014D2D0E946F0B7B018C0182E0D82AFD
:10183000CA9461F0CE010E94210EAC0197FFDACF6D
:10184000D1FC04C015C0EE24FF248701D7FE08C0D8
:1018500010950095F094E094E11CF11C011D111D00
:10186000C501B801A7012D2D0E94630B81E001C0C5
:1018700080E0CDB7DEB7EAE00C943509A0E2B0E035
:10188000E4E4FCE00C9415096C01A62E8A017901B0
:10189000FE01319680E2DF011D928A95E9F770E042
:1018A00030E060E040E050E04F01A1E0B0E0F60140
:1018B0008381F70183FD259183FF21917F012223FD
:1018C00009F47EC02E3519F44115510569F1872FB1
:1018D00090E08417950744F42D3551F12D3221F411
:1018E000332329F431E021C0332309F4622F322F4E
:1018F000832F869586958695F401E80FF11D832F39
:1019000087703D0102C0660C771C8A95E2F7208142
:1019100026292083361711F430E007C0361710F45B
:101920003F5FE6CF3150E4CF71E04F5F5F4FBFCFF5
:10193000332319F08E8180628E83772359F0FE0164
:1019400031969E012F5D3F4F808180958193E217F4
:10195000F307D1F7BB24B3944E010894811C911C6A
:10196000C6010E94210EAC0197FD22C08695869586
:101970008695F401E80FF11D808190E09A012770AF
:10198000307002C0959587952A95E2F780FD05C0D5
:10199000CA01B6010E948F0E0BC00115110519F086
:1019A000D8014D938D01AA94BB24AA20C9F602C088
:1019B000BB2031F40115110529F0F801108202C095
:1019C000EE24FF24C701A096EEE00C943109A0E0BC
:1019D000B0E0EDEEFCE00C9415095C016B013A01FE
:1019E000FC01178216828824EAC0812F90E00E94B1
:1019F000F80D892B21F0C5010E949D0BE0C0153226
:101A000049F4F601F3FC6591F3FE61916F016532D3
:101A100069F415E2C5010E94210E97FDDCC018177C
:101A200009F4CDC0B5010E948F0EDAC06A3219F0F8
:101A3000162F00E006C0F3FC1591F3FE11916F0123
:101A400001E099240FC00260692D70E080E090E011
:101A500040E20E946F0B962EF601F3FC1591F3FE07
:101A600011916F01212F20532A3068F301FD03C02B
:101A700099249A9403C0992009F4B2C0183621F031
:101A80001C3699F4F6010BC0F601F3FC6591F3FEE8
:101A90006191683619F06F01162F07C00860046065
:101AA000F3FC1591F3FE11916F01112309F498C015
:101AB0008CE790E0612F70E00E94000E892B09F402
:101AC0008FC0802F00FF03C0EE24FF2407C0F30166
:101AD000E080F18022E030E0620E731E1E3651F489
:101AE000F5014681578160E070E0C701202F0E9418
:101AF000630B65C0133691F481FD02C09924939461
:101B0000C5010E94210E97FD66C0E114F10419F091
:101B1000F70181937F019A9499F74FC01B3559F4CF
:101B2000C501692DA70196010E943E0C6C0100972A
:101B300009F043C03DC0C5010E949D0B97FD4BC0FD
:101B40001F3659F1103728F4143629F1193639F5B2
:101B500027C0133719F0153711F51DC0C5010E94B4
:101B6000210EEC0197FD11C00E94F80D892B29F080
:101B7000CE01B5010E948F0E08C0E114F10419F0E6
:101B8000F701C1937F019A9449F7E114F104A9F098
:101B9000F701108212C0006203C0006101C000643E
:101BA000C501692DA701202F0E94B60B882329F4B7
:101BB000F5018381807379F413C000FF8394F501EC
:101BC000F380F601F3FC1591F3FE11916F011123DF
:101BD00009F00BCF05C0882019F42FEF3FEF02C0AA
:101BE000282D30E0C901CDB7DEB7EEE00C94310905
:101BF00091110DC1803219F089508550D0F70895A8
:101C0000FC010590061621F00020D9F7C0010895C7
:101C10003197CF010895FC0105906150704001108B
:101C2000D8F7809590958E0F9F1F0895FC01615005
:101C3000704001900110D8F7809590958E0F9F1FEE
:101C40000895CF93DF93EC014B8140FF1AC046FF0C
:101C50000AC04F7B4B838E819F8101969F838E8329
:101C60008A81282F2BC042FF13C0E881F98180812F
:101C7000282F332727FD30952115310529F440629F
:101C80004B832FEF3FEF1BC03196F983E88311C0E0
:101C9000EA85FB85CE0109959C0197FF0AC09B81CF
:101CA0002F5F3F4F11F080E201C080E1892B8B83D1
:101CB000E8CF8E819F8101969F838E8330E0C9019A
:101CC000DF91CF9108950F931F93CF93DF938C01F2
:101CD000EB018B8181FF1BC082FF0DC02E813F81F4
:101CE0008C819D812817390764F4E881F98101937B
:101CF000F983E88306C0E885F985802F0995892B4B
:101D000031F48E819F8101969F838E8302C00FEFF5
:101D10001FEFC801DF91CF911F910F9108959C0192
:101D2000FB01838180FF11C086FD0FC09FEF2F3F15
:101D3000390759F0228380648F7D83838681978160
:101D400001979783868330E002C02FEF3FEFC901F0
:101D50000895FA01AA27283051F1203181F1E89441
:101D60006F936E7F6E5F7F4F8F4F9F4FAF4FB1E08E
:101D70003ED0B4E03CD0670F781F891F9A1FA11D89
:101D8000680F791F8A1F911DA11D6A0F711D811D8A
:101D9000911DA11D20D009F468943F912AE0269F4F
:101DA00011243019305D3193DEF6CF010895462FAE
:101DB0004770405D4193B3E00FD0C9F7F6CF462F8F
:101DC0004F70405D4A3318F0495D31FD40524193F8
:101DD00002D0A9F7EACFB4E0A695979587957795B5
:101DE0006795BA95C9F700976105710508959B013C
:101DF000AC010A2E06945795479537952795BA95C5
:101E0000C9F7620F731F841F951FA01D089599279E
:081E100088270895F894FFCF24
:101E18002564202564202564002564256425640044
:101E28000000000000000000000102020303030399
:101E38000404040404040404050505050505050552
:101E48000505050505050505060606060606060632
:101E5800060606060606060606060606060606061A
:101E68000606060606060606070707070707070702
:101E780007070707070707070707070707070707EA
:101E880007070707070707070707070707070707DA
:101E980007070707070707070707070707070707CA
:101EA80007070707070707070808080808080808B2
:101EB800080808080808080808080808080808089A
:101EC800080808080808080808080808080808088A
:101ED800080808080808080808080808080808087A
:101EE800080808080808080808080808080808086A
:101EF800080808080808080808080808080808085A
:101F08000808080808080808080808080808080849
:101F18000808080808080808080808080808080839
:081F2800080808080808080871
:00000001FF
