:100000000C943E000C9453000C9453000C94530039
:100010000C9453000C9453000C9453000C94530014
:100020000C9453000C9453000C9453000C94530004
:100030000C9453000C9453000C9453000C945300F4
:100040000C9453000C9453000C9453000C945300E4
:100050000C9453000C9453000C9453000C945300D4
:100060000C9453000C9453000C9453000C945300C4
:100070000C9453000C9453000C94530011241FBE95
:10008000CFEFD8E0DEBFCDBF12E0A0E0B1E0EAEBF9
:10009000F7E102C005900D92A231B107D9F70E9495
:1000A00093010C94DB0B0C9400008F929F92AF9203
:1000B000BF92CF92DF92EF92FF920F931F930E9415
:1000C000FB0280E4C82E8CE9D82EC6010197F1F717
:1000D0000E9401034B015C01C6010197F1F70E94E8
:1000E00001037B018C01C6010197F1F70E94010316
:1000F000E80CF91C0A1D1B1DE60EF71E081F191F30
:10010000C801B70123E030E040E050E00E94E10880
:10011000CA01B9011F910F91FF90EF90DF90CF902E
:10012000BF90AF909F908F900895EF92FF920F93A2
:100130001F93139A0E9455007B018C0188EE93E077
:1001400020E931E0F9013197F1F70197D9F71398D8
:100150000E94550020E030E0E61AF70A080B190B60
:1001600081E4E8168FE1F80680E0080780E01807D0
:1001700010F021E030E0C9011F910F91FF90EF9046
:1001800008958F929F92AF92BF92CF92DF92EF929B
:10019000FF920F931F930E94F80290E4C92E9CE9EE
:1001A000D92EC6010197F1F70E9401034B015C01B2
:1001B000C6010197F1F70E9401037B018C01C60182
:1001C0000197F1F70E940103E80CF91C0A1D1B1DA1
:1001D000E60EF71E081F191FC801B7010E9473061B
:1001E00026E636E646E850E40E9443050E946D0389
:1001F0009B01AC01CA011F910F91FF90EF90DF901E
:10020000CF90BF90AF909F908F9008958F929F92C4
:10021000AF92BF92CF92DF92EF92FF920F931F9314
:100220000E94F50220E4C22E2CE9D22EC6010197CD
:10023000F1F70E9401034B015C01C6010197F1F740
:100240000E9401037B018C01C6010197F1F70E9416
:100250000103E80CF91C0A1D1B1DE60EF71E081F02
:10026000191FC801B70123E030E040E050E00E94D0
:10027000E108CA01B9011F910F91FF90EF90DF9043
:10028000CF90BF90AF909F908F9008958F929F9244
:10029000AF92BF92CF92DF92EF92FF920F931F9394
:1002A0000E94F20230E4C32E3CE9D32EC60101972E
:1002B000F1F70E9401034B015C01C6010197F1F7C0
:1002C0000E9401037B018C01C6010197F1F70E9496
:1002D0000103E80CF91C0A1D1B1DE60EF71E081F82
:1002E000191FC801B7010E94730623E333E343E5F6
:1002F00050E40E9443050E946D039B01AC01CA01BA
:100300001F910F91FF90EF90DF90CF90BF90AF9033
:100310009F908F9008950E94EE020E94FE02209A04
:10032000219A229A08952F923F924F925F926F9254
:100330007F928F929F92AF92BF92CF92DF92EF9275
:10034000FF920F931F93DF93CF93CDB7DEB76A97DA
:100350000FB6F894DEBF0FBECDBF0E948B0119828D
:100360000E94280384B184B99E012F5F3F4F3A8FCA
:10037000298F0E949500892B09F426C1139A0E94A7
:1003800046015B016C010E9406011B012C010E94C9
:10039000C1006D8B7E8B8F8B988F13984DB75EB796
:1003A000405150400FB6F8945EBF0FBE4DBFEDB741
:1003B000FEB7319621E030E02C0F3D1FADB7BEB740
:1003C00012963C932E93119740E051E05383428361
:1003D000A482B582C682D782208631864286538621
:1003E0008D899E89AF89B88D84879587A687B787C1
:1003F0000E943A0900E010E0ADB7BEB750960FB6C4
:10040000F894BEBF0FBEADBF0BC0E1E0F0E0EC0F53
:10041000FD1FE00FF11F80810E9434030F5F1F4F0B
:10042000E98DFA8D01900020E9F73197298D3A8DF9
:10043000E21BF30B0E171F0740F38AE00E94340300
:100440008D899E89AF89B88DA816B906CA06DB06C4
:1004500060F4D201C101B101CD01A214B304C404FE
:10046000D504B0F4D601C50111C08D899E89AF892C
:10047000B88DBC01CD012D893E894F89588D22163A
:1004800033064406550620F4D201C101BC01CD015A
:100490002AE030E040E050E00E94E10879018A0162
:1004A000C601B501A80197010E94E10839014A017E
:1004B0003AE0631671048104910439F449ECE416BE
:1004C000F1040105110508F07FC0C201B101A801C6
:1004D00097010E94E10859016A016D897E898F891F
:1004E000988DA80197010E94E108C901DA018A15D7
:1004F0009B05AC05BD0508F56A147B048C049D04BE
:10050000E0F458E06516710481049104B0F02DE028
:10051000621671048104910480F485B130E283276E
:1005200085B988E893E1E0E9F1E03197F1F70197C7
:10053000D1F785B140E2842746C0A816B906CA069D
:10054000DB0618F58F309105A105B105F0F05DE0EF
:100550006516710481049104C0F485B190E4892783
:1005600085B985B1A0E28A2785B988E893E1E0E9F9
:10057000F1E03197F1F70197D1F785B1B0E28B2720
:1005800085B985B120E482271EC086159705A80588
:10059000B905D0F40D97A105B105B0F43DE0A3165F
:1005A000B104C104D10480F485B140E4842785B945
:1005B00088E893E1E0E9F1E03197F1F70197D1F7AD
:1005C00085B150E4852785B984EF91E0E0E9F1E059
:1005D0003197F1F7019709F4CCCEF8CF0B9A0C9A2A
:1005E0000B9A0895139814980895139A149A0895DD
:1005F0001398149A0895139A14980895169A1198B6
:100600000895029902C0029BFECF0299FECF10927C
:1006100085001092840081E080938100029BFECFD0
:1006200010928100609184007091850080E090E0DC
:100630000E9473069B01AC0160E074E284EF9AE4CF
:100640000E9443050E946D039B01AC01CA010895FD
:100650001092C50087E68093C40088E18093C100B2
:1006600086E08093C2000895982F8091C00085FF96
:10067000FCCF9093C60008958091C00087FFFCCF07
:100680008091C6000895FC0107C08091C00085FFDD
:10069000FCCF31969093C60090819923B1F70895CD
:1006A000AC0120E030E0FA01E20FF31FE08180911D
:1006B000C00085FFFCCFE093C6002F5F3F4F253081
:1006C000310589F70895982F8091C00085FFFCCFF0
:1006D0009093C60080E090E00895EF92FF920F9310
:1006E0001F937B018C0120E030E040E05FE40E943A
:1006F000EF0588238CF0C801B70120E030E040E02E
:100700005FE40E94E5040E941F069B01AC0120509B
:1007100030404040504806C0C801B7010E941F0643
:100720009B01AC01B901CA011F910F91FF90EF909D
:100730000895A0E0B0E0EFE9F3E00C940309DC01D8
:100740002B01FA019C91923008F439C1EB018881A8
:10075000823008F433C1943069F4843009F02FC139
:1007600011969C9111978981981709F428C1A9E0E5
:10077000B1E025C1843009F421C18230A9F492305E
:1007800009F01DC19A01AD0188E0EA010990AE01AE
:10079000E90109929E018150C1F7E2018981119618
:1007A0009C918923818308C1923009F407C1129674
:1007B0002D903C901397EB018A819B811496AD900C
:1007C000BD90CD90DC901797EC80FD800E811F814D
:1007D0009101281B390BB90137FF04C06627772721
:1007E000621B730B603271050CF061C012161306A8
:1007F0006CF537014801062E04C0969487947794CF
:1008000067940A94D2F721E030E040E050E004C061
:10081000220F331F441F551F6A95D2F721503040D5
:10082000404050402E213F214023512321153105C6
:100830004105510521F021E030E040E050E0790130
:100840008A01E628F728082919293CC0232BD1F171
:10085000260E371E35014601062E04C09694879455
:10086000779467940A94D2F721E030E040E050E0BA
:1008700004C0220F331F441F551F6A95D2F7215021
:100880003040404050402A213B214C215D21211520
:1008900031054105510521F021E030E040E050E014
:1008A00059016A01A628B728C828D9280BC0821583
:1008B00093052CF01C01AA24BB24650103C0EE247F
:1008C000FF24870111969C91D20111968C91981763
:1008D00009F445C0992339F0A80197012A193B0969
:1008E0004C095D0906C0A60195012E193F09400B70
:1008F000510B57FD08C01182338222822483358335
:10090000468357831DC081E08183338222828827FA
:100910009927DC01821B930BA40BB50B8483958371
:10092000A683B7830DC0220F331F441F551F248396
:100930003583468357838281938101979383828392
:100940002481358146815781DA01C9010197A109C6
:10095000B1098F5F9F4FAF4FBF4328F30BC0918307
:1009600033822282EA0CFB1C0C1D1D1DE482F582E1
:100970000683178383E080832481358146815781F4
:1009800057FF1AC0C901AA2797FDA095BA2F8170F9
:100990009070A070B0705695479537952795822B2B
:1009A000932BA42BB52B84839583A683B783828155
:1009B0009381019693838283DF0101C0D201CD012F
:1009C000CDB7DEB7E2E10C941F09A0E2B0E0EBEE98
:1009D000F4E00C940F0969837A838B839C832D83C5
:1009E0003E834F835887E9E0EE2EF12CEC0EFD1E7E
:1009F000CE010196B7010E9410088E010F5E1F4FB5
:100A0000CE010596B8010E9410088A8991E08927D5
:100A10008A8BC701B801AE01475E5F4F0E94990300
:100A20000E943B07A096E6E00C942B09A0E2B0E000
:100A3000ECE1F5E00C940F0969837A838B839C8346
:100A40002D833E834F835887F9E0EF2EF12CEC0E77
:100A5000FD1ECE010196B7010E9410088E010F5EA7
:100A60001F4FCE010596B8010E941008C701B801BA
:100A7000AE01475E5F4F0E9499030E943B07A0961C
:100A8000E6E00C942B09A8E1B0E0E9E4F5E00C9471
:100A90000B0969837A838B839C832D833E834F83E9
:100AA0005887B9E0EB2EF12CEC0EFD1ECE0101961D
:100AB000B7010E9410088E010F5E1F4FCE010596F0
:100AC000B8010E9410082985223008F47EC03989B7
:100AD000323010F4B8017CC08A859A8989278A87C8
:100AE000243011F0223031F4231709F06EC069E090
:100AF00071E06EC0343039F41D861E861F86188A58
:100B00001C861B8604C0323021F484E08987B7013B
:100B10005FC02B853C858B899C89281B390B3C87C2
:100B20002B87ED84FE840F851889AD88BE88CF8819
:100B3000D88CEA14FB040C051D0540F4EE0CFF1CD8
:100B4000001F111F215030403C872B8720E030E0F0
:100B500040E050E080E090E0A0E0B0E460E070E0D1
:100B6000EA14FB040C051D0540F0282B392B4A2BF9
:100B70005B2BEA18FB080C091D09B695A7959795FC
:100B80008795EE0CFF1C001F111F6F5F7F4F6F31A9
:100B9000710531F7DA01C9018F779070A070B070DC
:100BA00080349105A105B10561F427FD0AC0E11467
:100BB000F1040105110529F0205C3F4F4F4F5F4FB5
:100BC00020782D873E874F87588BBE01675F7F4F08
:100BD000CB010E943B076896EAE00C942709A8E144
:100BE000B0E0E5EFF5E00C940F0969837A838B831D
:100BF0009C832D833E834F83588789E0E82EF12C18
:100C0000EC0EFD1ECE010196B7010E9410088E0168
:100C10000F5E1F4FCE010596B8010E94100889850E
:100C2000823040F08989823028F0C701B8010E94E3
:100C3000880801C08FEF6896E6E00C942B09ACE0C1
:100C4000B0E0E5E2F6E00C94130969837A838B83C4
:100C50009C83CE010196BE016B5F7F4F0E941008FE
:100C60008D81823061F1823050F1843021F48E81A7
:100C7000882351F12EC02F81388537FD20C06E8129
:100C80002F3131051CF06623F9F023C08EE190E08E
:100C9000821B930B29853A854B855C8504C056954C
:100CA0004795379527958A95D2F76623B1F05095E9
:100CB0004095309521953F4F4F4F5F4F0EC020E03C
:100CC00030E040E050E009C02FEF3FEF4FEF5FE72B
:100CD00004C020E030E040E050E8B901CA012C96A1
:100CE000E2E00C942F09A8E0B0E0E9E7F6E00C940C
:100CF0000B097B018C01611571058105910519F4C2
:100D000082E0898360C083E089838EE1C82ED12C84
:100D1000DC82CB82ED82FE820F831887C801B70187
:100D20000E94EC06FC013197F7FF3BC022273327D6
:100D30002E1B3F0B57016801022E04C0D694C794A6
:100D4000B794A7940A94D2F740E050E060E070E0D6
:100D500081E090E0A0E0B0E004C0880F991FAA1FD6
:100D6000BB1F2A95D2F70197A109B1098E219F21B6
:100D7000A023B1230097A105B10521F041E050E087
:100D800060E070E04A295B296C297D294D835E83F0
:100D90006F8378878EE190E08E1B9F0B9C838B8303
:100DA00012C0309781F00E2E04C0EE0CFF1C001F05
:100DB000111F0A94D2F7ED82FE820F831887CE1A94
:100DC000DF0ADC82CB821A82CE0101960E943B07A9
:100DD0002896EAE00C942709EF92FF920F931F9355
:100DE0007B018C0180E0E81680E0F80681E00807CE
:100DF00080E0180788F48FEFE816F104010511056B
:100E000031F028F088E090E0A0E0B0E017C080E08A
:100E100090E0A0E0B0E012C080E0E81680E0F806C4
:100E200080E0080781E0180728F088E190E0A0E062
:100E3000B0E004C080E190E0A0E0B0E020E230E06B
:100E400040E050E0281B390B4A0B5B0B04C01695A1
:100E50000795F794E7948A95D2F7F701EF5EFE4F76
:100E60008081281B310941095109C9011F910F9146
:100E7000FF90EF900895DF92EF92FF920F931F93F0
:100E8000FC01E480F58006811781D1808081823069
:100E900048F480E090E0A0E1B0E0E82AF92A0A2BCB
:100EA0001B2BA5C0843009F49FC0823021F4EE24AE
:100EB000FF24870105C0E114F1040105110519F4AF
:100EC000E0E0F0E096C0628173819FEF62387907BD
:100ED0000CF05BC022E83FEF261B370B2A313105AF
:100EE0002CF020E030E040E050E02AC0B801A7013B
:100EF000022E04C076956795579547950A94D2F7C8
:100F000081E090E0A0E0B0E004C0880F991FAA1F24
:100F1000BB1F2A95D2F70197A109B1098E219F2104
:100F2000A023B1230097A105B10521F081E090E055
:100F3000A0E0B0E09A01AB01282B392B4A2B5B2BA8
:100F4000DA01C9018F779070A070B070803491057C
:100F5000A105B10539F427FF09C0205C3F4F4F4F71
:100F60005F4F04C0215C3F4F4F4F5F4FE0E0F0E028
:100F70002030A0E03A07A0E04A07A0E45A0710F0AA
:100F8000E1E0F0E079018A0127C06038710564F57D
:100F9000FB01E158FF4FD801C7018F779070A07017
:100FA000B07080349105A105B10539F4E7FE0DC09C
:100FB00080E490E0A0E0B0E004C08FE390E0A0E027
:100FC000B0E0E80EF91E0A1F1B1F17FF05C016959B
:100FD0000795F794E794319687E016950795F7946F
:100FE000E7948A95D1F705C0EE24FF248701EFEF3F
:100FF000F0E06E2F679566276795902F9F77D794BF
:10100000DD24D7948E2F8695492F462B582F5D29A6
:10101000B701CA011F910F91FF90EF90DF900895E3
:10102000FC01DB01408151812281622F6F7770E0EA
:10103000221F2227221F9381892F880F822B282F7E
:1010400030E0991F9927991F11969C9311972115AC
:101050003105A9F5411551056105710511F482E0CD
:1010600037C082E89FEF13969C938E9312979A0154
:10107000AB0167E0220F331F441F551F6A95D1F75C
:1010800083E08C930DC0220F331F441F551F12960F
:101090008D919C911397019713969C938E93129721
:1010A000203080E0380780E0480780E4580758F394
:1010B00014962D933D934D935C93179708952F3F6E
:1010C000310579F4411551056105710519F484E084
:1010D0008C93089564FF03C081E08C9312C01C922E
:1010E00010C02F57304013963C932E93129783E0F5
:1010F0008C9387E0440F551F661F771F8A95D1F7A1
:10110000706414964D935D936D937C931797089537
:101110001F93DC01FB019C91923008F447C0808151
:10112000823008F443C0943051F411961C918430FD
:1011300099F58181682F70E0611B71093FC084308F
:1011400021F0923031F48230B9F18181882389F124
:101150002DC011961C9111978230F1F081811817E2
:10116000D9F412962D913C91139782819381821725
:10117000930794F028173907BCF014968D919D9130
:101180000D90BC91A02D248135814681578128176F
:1011900039074A075B0718F4112341F00AC0821788
:1011A0009307A407B50740F4112319F061E070E03C
:1011B00005C06FEF7FEF02C060E070E0CB011F91D0
:1011C0000895A1E21A2EAA1BBB1BFD010DC0AA1F88
:1011D000BB1FEE1FFF1FA217B307E407F50720F0A0
:1011E000A21BB30BE40BF50B661F771F881F991F1B
:1011F0001A9469F760957095809590959B01AC0164
:10120000BD01CF0108952F923F924F925F926F924E
:101210007F928F929F92AF92BF92CF92DF92EF9286
:10122000FF920F931F93CF93DF93CDB7DEB7CA1B07
:10123000DB0B0FB6F894DEBF0FBECDBF09942A8832
:10124000398848885F846E847D848C849B84AA84DA
:10125000B984C884DF80EE80FD800C811B81AA8167
:10126000B981CE0FD11D0FB6F894DEBF0FBECDBF32
:10127000ED010895AEE0B0E0E0E4F9E00C9411096E
:101280000D891E8986E08C831A8309838FEF9FE77F
:101290009E838D839E01275E3F4FCE0101966F890D
:1012A000788DA9010E945E092F813885020F131FD6
:1012B000F80110822E96E4E00C942D09ABE0B0E02A
:1012C000E4E6F9E00C9403093C012B015A01FC010E
:1012D00017821682838181FD03C06FEF7FEFC6C145
:1012E0009AE0892E1E010894211C311CF3012381F0
:1012F000F20123FD859123FF81912F01882309F4B9
:10130000B2C1853239F423FD859123FF81912F01EC
:10131000853229F490E0B3010E94510BE7CF982F5A
:10132000FF24EE249924FFE1FF15D0F09B3269F0F1
:101330009C3228F4903259F0933291F40EC09D32D1
:1013400049F0903369F441E024C052E0F52A84E08A
:10135000F82A28C098E0F92A25C0E0E1FE2A22C038
:10136000F7FC29C0892F80538A3070F4F6FE05C03F
:10137000989C902C1124980E15C0E89CE02C112408
:10138000E80EF0E2FF2A0EC09E3229F4F6FC6BC193
:1013900040E4F42A07C09C3619F450E8F52A02C04C
:1013A000983649F4F20123FD959123FF91912F0185
:1013B000992309F0B8CF892F8554833018F08052D3
:1013C000833038F444E050E0A40EB51E5FE3598347
:1013D0000FC0933631F0933779F0933509F056C04A
:1013E00020C0F5018081898342E050E0A40EB51E43
:1013F000610101E010E012C0F501C080D180F6FC6F
:1014000003C06FEF7FEF02C0692D70E042E050E053
:10141000A40EB51EC6010E94460B8C015FE7F522A3
:1014200014C0F501C080D180F6FC03C06FEF7FEFE0
:1014300002C0692D70E042E050E0A40EB51EC60166
:101440000E943B0B8C0150E8F52AF3FE07C01AC03E
:1014500080E290E0B3010E94510BEA948E2D90E05F
:1014600008171907A8F30EC0F601F7FC8591F7FEDF
:1014700081916F0190E0B3010E94510BE110EA9459
:10148000015010400115110579F7EAC0943611F0AA
:10149000993669F5F7FE08C0F50120813181428156
:1014A000538184E090E00AC0F501808191819C0124
:1014B000442737FD4095542F82E090E0A80EB91ED6
:1014C0009FE6F92257FF09C0509540953095219528
:1014D0003F4F4F4F5F4FE0E8FE2ACA01B901A1011B
:1014E0002AE030E00E947D0BD82ED21840C09537FC
:1014F00029F41F2D1F7E2AE030E01DC01F2D197F0B
:101500009F3661F0903720F4983509F0ACC00FC0D9
:10151000903739F0983709F0A6C004C028E030E0D1
:101520000AC0106114FD146020E130E004C014FD15
:10153000166020E132E017FF08C0F501608171817B
:101540008281938144E050E008C0F501808191815F
:10155000BC0180E090E042E050E0A40EB51EA10185
:101560000E947D0BD82ED2188FE7F82EF122F6FEBE
:101570000BC05EEFF522D91438F4F4FE07C0F2FC7C
:1015800005C08FEEF82202C01D2D01C0192DF4FEFA
:101590000DC0FE01ED0DF11D8081803319F499EE2F
:1015A000F92208C01F5FF2FE05C003C08F2D8678A8
:1015B00009F01F5F0F2DF3FC14C0F0FE0FC01E15C5
:1015C00010F09D2C0BC09D2C9E0C911A1E2D06C058
:1015D00080E290E0B3010E94510B1F5F1E15C0F323
:1015E00004C01E1510F4E11A01C0EE2404FF0FC060
:1015F00080E390E0B3010E94510B02FF1DC001FD8A
:1016000003C088E790E00EC088E590E00BC0802F13
:10161000867891F001FF02C08BE201C080E2F7FC06
:101620008DE290E0B3010E94510B06C080E390E090
:10163000B3010E94510B9A94D914C0F3DA94F101CA
:10164000ED0DF11D808190E0B3010E94510BDD2072
:10165000A9F706C080E290E0B3010E94510BEA9422
:10166000EE20C1F743CEF30166817781CB012B9643
:10167000E2E10C941F09FC010590615070400110DB
:10168000D8F7809590958E0F9F1F0895FC016150AB
:10169000704001900110D8F7809590958E0F9F1F94
:1016A00008950F931F93CF93DF938C01EB018B81F0
:1016B00081FF1BC082FF0DC02E813F818C819D81E7
:1016C0002817390764F4E881F9810193F983E883E5
:1016D00006C0E885F985802F0995892B31F48E8124
:1016E0009F8101969F838E8302C00FEF1FEFC80179
:1016F000DF91CF911F910F910895FA01AA27283009
:1017000051F1203181F1E8946F936E7F6E5F7F4FCE
:101710008F4F9F4FAF4FB1E03ED0B4E03CD0670F4A
:10172000781F891F9A1FA11D680F791F8A1F911D9D
:10173000A11D6A0F711D811D911DA11D20D009F4ED
:1017400068943F912AE0269F11243019305D31932F
:10175000DEF6CF010895462F4770405D4193B3E018
:101760000FD0C9F7F6CF462F4F70405D4A3318F0BF
:10177000495D31FD4052419302D0A9F7EACFB4E070
:10178000A6959795879577956795BA95C9F7009728
:101790006105710508959B01AC010A2E06945795C9
:1017A000479537952795BA95C9F7620F731F841F20
:0A17B000951FA01D0895F894FFCFC7
:1017BA002564202564202564000000000000000044
:1017CA0000000102020303030304040404040404E2
:1017DA0004050505050505050505050505050505B0
:1017EA000506060606060606060606060606060690
:1017FA00060606060606060606060606060606067F
:10180A00060707070707070707070707070707075F
:10181A00070707070707070707070707070707074E
:10182A00070707070707070707070707070707073E
:10183A00070707070707070707070707070707072E
:10184A00070808080808080808080808080808080F
:10185A0008080808080808080808080808080808FE
:10186A0008080808080808080808080808080808EE
:10187A0008080808080808080808080808080808DE
:10188A0008080808080808080808080808080808CE
:10189A0008080808080808080808080808080808BE
:1018AA0008080808080808080808080808080808AE
:1018BA00080808080808080808080808080808089E
:0218CA00080014
:00000001FF
