:100000000C943E000C9453000C9453000C94530039
:100010000C9453000C9453000C9453000C94530014
:100020000C9453000C9453000C9453000C94530004
:100030000C9453000C9453000C9453000C945300F4
:100040000C9453000C9453000C9453000C945300E4
:100050000C9453000C9453000C9453000C945300D4
:100060000C9453000C9453000C9453000C945300C4
:100070000C9453000C9453000C94530011241FBE95
:10008000CFEFD8E0DEBFCDBF12E0A0E0B1E0E6ECFC
:10009000F1E102C005900D92A830B107D9F70E9496
:1000A00093010C94E1080C9400008F929F92AF9200
:1000B000BF92CF92DF92EF92FF920F931F930E9415
:1000C000A20280E4C82E8CE9D82EC6010197F1F770
:1000D0000E94A8024B015C01C6010197F1F70E9442
:1000E000A8027B018C01C6010197F1F70E94A802CA
:1000F000E80CF91C0A1D1B1DE60EF71E081F191F30
:10010000C801B70123E030E040E050E00E948808D9
:10011000CA01B9011F910F91FF90EF90DF90CF902E
:10012000BF90AF909F908F900895EF92FF920F93A2
:100130001F93139A0E9455007B018C0188EE93E077
:1001400020E931E0F9013197F1F70197D9F71398D8
:100150000E94550020E030E0E61AF70A080B190B60
:1001600081E4E8168FE1F80680E0080780E01807D0
:1001700010F021E030E0C9011F910F91FF90EF9046
:1001800008958F929F92AF92BF92CF92DF92EF929B
:10019000FF920F931F930E949F0290E4C92E9CE947
:1001A000D92EC6010197F1F70E94A8024B015C010C
:1001B000C6010197F1F70E94A8027B018C01C601DC
:1001C0000197F1F70E94A802E80CF91C0A1D1B1DFB
:1001D000E60EF71E081F191FC801B7010E941A0674
:1001E00026E636E646E850E40E94EA040E9414033C
:1001F0009B01AC01CA011F910F91FF90EF90DF901E
:10020000CF90BF90AF909F908F9008958F929F92C4
:10021000AF92BF92CF92DF92EF92FF920F931F9314
:100220000E949C0220E4C22E2CE9D22EC601019726
:10023000F1F70E94A8024B015C01C6010197F1F79A
:100240000E94A8027B018C01C6010197F1F70E9470
:10025000A802E80CF91C0A1D1B1DE60EF71E081F5C
:10026000191FC801B70123E030E040E050E00E94D0
:100270008808CA01B9011F910F91FF90EF90DF909C
:10028000CF90BF90AF909F908F9008958F929F9244
:10029000AF92BF92CF92DF92EF92FF920F931F9394
:1002A0000E94990230E4C32E3CE9D32EC601019787
:1002B000F1F70E94A8024B015C01C6010197F1F71A
:1002C0000E94A8027B018C01C6010197F1F70E94F0
:1002D000A802E80CF91C0A1D1B1DE60EF71E081FDC
:1002E000191FC801B7010E941A0623E333E343E54F
:1002F00050E40E94EA040E9414039B01AC01CA016D
:100300001F910F91FF90EF90DF90CF90BF90AF9033
:100310009F908F9008950E9495020E94A502209AB6
:10032000219A229A08952F923F924F925F926F9254
:100330007F928F929F92AF92BF92CF92DF92EF9275
:10034000FF920F931F93DF93CF9300D000D0CDB7D0
:10035000DEB70E948B010E94CF0284B184B90E9453
:100360009500892B09F4D7C0139A0E9446015B01BE
:100370006C010E9406011B012C010E94C1006983CF
:100380007A838B839C83139880E70E94DB02298108
:100390003A814B815C81A216B306C406D50660F48F
:1003A000D201C101B101CD01A214B304C404D5042A
:1003B000B0F4D601C50111C089819A81AB81BC819D
:1003C000BC01CD0129813A814B815C812216330623
:1003D0004406550620F4D201C101BC01CD012AE03A
:1003E00030E040E050E00E94880879018A01C601AF
:1003F000B501A80197010E94880839014A013AE035
:10040000631671048104910439F449ECE416F10493
:100410000105110508F07FC0C201B101A8019701D3
:100420000E94880859016A0169817A818B819C81C7
:10043000A80197010E948808C901DA018A159B0565
:10044000AC05BD0508F56A147B048C049D04E0F43A
:1004500058E06516710481049104B0F0EDE06E1669
:1004600071048104910480F485B1F0E28F2785B98D
:1004700088E893E1E0E9F1E03197F1F70197D1F7EE
:1004800085B120E2822746C0A816B906CA06DB0657
:1004900018F58F309105A105B105F0F03DE0631628
:1004A000710481049104C0F485B140E4842785B9C6
:1004B00085B150E2852785B988E893E1E0E9F1E06C
:1004C0003197F1F70197D1F785B190E2892785B986
:1004D00085B1A0E48A271EC086159705A805B90531
:1004E000D0F40D97A105B105B0F4BDE0AB16B10491
:1004F000C104D10480F485B1E0E48E2785B988E891
:1005000093E1E0E9F1E03197F1F70197D1F785B197
:10051000F0E48F2785B984EF91E0E0E9F1E03197CD
:10052000F1F7019709F41BCFF8CF0B9A0C9A0B9AAD
:100530000895139814980895139A149A0895139887
:10054000149A0895139A14980895169A1198089574
:10055000029902C0029BFECF0299FECF1092850045
:100560001092840081E080938100029BFECF109264
:100570008100609184007091850080E090E00E948D
:100580001A069B01AC0160E074E284EF9AE40E94D9
:10059000EA040E9414039B01AC01CA010895109261
:1005A000C50087E68093C40088E18093C10086E09F
:1005B0008093C2000895982F8091C00085FFFCCFE2
:1005C0009093C60008958091C00087FFFCCF809172
:1005D000C6000895FC0107C08091C00085FFFCCFD4
:1005E00031969093C60090819923B1F70895AC019C
:1005F00020E030E0FA01E20FF31FE0818091C000BB
:1006000085FFFCCFE093C6002F5F3F4F25303105BB
:1006100089F70895982F8091C00085FFFCCF9093B3
:10062000C60080E090E00895EF92FF920F931F9331
:100630007B018C0120E030E040E05FE40E94960501
:1006400088238CF0C801B70120E030E040E05FE48F
:100650000E948C040E94C6059B01AC0120503040D2
:100660004040504806C0C801B7010E94C6059B0122
:10067000AC01B901CA011F910F91FF90EF9008954D
:10068000A0E0B0E0E6E4F3E00C94AA08DC012B0162
:10069000FA019C91923008F439C1EB0188818230D3
:1006A00008F433C1943069F4843009F02FC11196F5
:1006B0009C9111978981981709F428C1A0E0B1E0B5
:1006C00025C1843009F421C18230A9F4923009F0A7
:1006D0001DC19A01AD0188E0EA010990AE01E9016E
:1006E00009929E018150C1F7E201898111969C9186
:1006F0008923818308C1923009F407C112962D9095
:100700003C901397EB018A819B811496AD90BD902C
:10071000CD90DC901797EC80FD800E811F819101B8
:10072000281B390BB90137FF04C066277727621BE6
:10073000730B603271050CF061C0121613066CF574
:1007400037014801062E04C09694879477946794E5
:100750000A94D2F721E030E040E050E004C0220FDC
:10076000331F441F551F6A95D2F721503040404037
:1007700050402E213F2140235123211531054105B1
:10078000510521F021E030E040E050E079018A019C
:10079000E628F728082919293CC0232BD1F1260E79
:1007A000371E35014601062E04C09694879477942F
:1007B00067940A94D2F721E030E040E050E004C0B2
:1007C000220F331F441F551F6A95D2F72150304026
:1007D000404050402A213B214C215D21211531050B
:1007E0004105510521F021E030E040E050E05901A1
:1007F0006A01A628B728C828D9280BC082159305F6
:100800002CF01C01AA24BB24650103C0EE24FF24A4
:10081000870111969C91D20111968C91981709F439
:1008200045C0992339F0A80197012A193B094C09C1
:100830005D0906C0A60195012E193F09400B510B19
:1008400057FD08C011823382228224833583468378
:1008500057831DC081E081833382228288279927B4
:10086000DC01821B930BA40BB50B84839583A683B9
:10087000B7830DC0220F331F441F551F24833583B8
:100880004683578382819381019793838283248156
:10089000358146815781DA01C9010197A109B10962
:1008A0008F5F9F4FAF4FBF4328F30BC091833382BD
:1008B0002282EA0CFB1C0C1D1D1DE482F5820683BE
:1008C000178383E08083248135814681578157FFD8
:1008D0001AC0C901AA2797FDA095BA2F8170907000
:1008E000A070B0705695479537952795822B932B1E
:1008F000A42BB52B84839583A683B78382819381B0
:10090000019693838283DF0101C0D201CD01CDB76F
:10091000DEB7E2E10C94C608A0E2B0E0E2E9F4E060
:100920000C94B60869837A838B839C832D833E83E2
:100930004F835887E9E0EE2EF12CEC0EFD1ECE0120
:100940000196B7010E94B7078E010F5E1F4FCE01BF
:100950000596B8010E94B7078A8991E089278A8B9A
:10096000C701B801AE01475E5F4F0E9440030E947D
:10097000E206A096E6E00C94D208A0E2B0E0E3EC38
:10098000F4E00C94B60869837A838B839C832D836F
:100990003E834F835887F9E0EF2EF12CEC0EFD1EBD
:1009A000CE010196B7010E94B7078E010F5E1F4F5F
:1009B000CE010596B8010E94B707C701B801AE0184
:1009C000475E5F4F0E9440030E94E206A096E6E069
:1009D0000C94D208A8E1B0E0E0EFF4E00C94B20887
:1009E00069837A838B839C832D833E834F835887CF
:1009F000B9E0EB2EF12CEC0EFD1ECE010196B701F5
:100A00000E94B7078E010F5E1F4FCE010596B801F9
:100A10000E94B7072985223008F47EC03989323018
:100A200010F4B8017CC08A859A8989278A87243086
:100A300011F0223031F4231709F06EC060E071E04C
:100A40006EC0343039F41D861E861F86188A1C86B7
:100A50001B8604C0323021F484E08987B7015FC06F
:100A60002B853C858B899C89281B390B3C872B87E0
:100A7000ED84FE840F851889AD88BE88CF88D88C18
:100A8000EA14FB040C051D0540F4EE0CFF1C001FCE
:100A9000111F215030403C872B8720E030E040E0A0
:100AA00050E080E090E0A0E0B0E460E070E0EA14A4
:100AB000FB040C051D0540F0282B392B4A2B5B2B22
:100AC000EA18FB080C091D09B695A7959795879517
:100AD000EE0CFF1C001F111F6F5F7F4F6F31710500
:100AE00031F7DA01C9018F779070A070B07080344F
:100AF0009105A105B10561F427FD0AC0E114F104D7
:100B00000105110529F0205C3F4F4F4F5F4F2078C2
:100B10002D873E874F87588BBE01675F7F4FCB0184
:100B20000E94E2066896EAE00C94CE08A8E1B0E0E4
:100B3000ECE9F5E00C94B60869837A838B839C8397
:100B40002D833E834F83588789E0E82EF12CEC0EED
:100B5000FD1ECE010196B7010E94B7078E010F5E00
:100B60001F4FCE010596B8010E94B70789858230D4
:100B700040F08989823028F0C701B8010E942F080F
:100B800001C08FEF6896E6E00C94D208ACE0B0E0CC
:100B9000ECECF5E00C94BA0869837A838B839C8330
:100BA000CE010196BE016B5F7F4F0E94B7078D811A
:100BB000823061F1823050F1843021F48E818823BB
:100BC00051F12EC02F81388537FD20C06E812F3125
:100BD00031051CF06623F9F023C08EE190E0821B02
:100BE000930B29853A854B855C8504C056954795BE
:100BF000379527958A95D2F76623B1F050954095A1
:100C0000309521953F4F4F4F5F4F0EC020E030E0B1
:100C100040E050E009C02FEF3FEF4FEF5FE704C027
:100C200020E030E040E050E8B901CA012C96E2E053
:100C30000C94D608A8E0B0E0E0E2F6E00C94B2082C
:100C40007B018C01611571058105910519F482E024
:100C5000898360C083E089838EE1C82ED12CDC8239
:100C6000CB82ED82FE820F831887C801B7010E94F4
:100C70009306FC013197F7FF3BC0222733272E1B39
:100C80003F0B57016801022E04C0D694C794B79455
:100C9000A7940A94D2F740E050E060E070E081E071
:100CA00090E0A0E0B0E004C0880F991FAA1FBB1F0E
:100CB0002A95D2F70197A109B1098E219F21A0237E
:100CC000B1230097A105B10521F041E050E060E0BB
:100CD00070E04A295B296C297D294D835E836F83EF
:100CE00078878EE190E08E1B9F0B9C838B8312C0D4
:100CF000309781F00E2E04C0EE0CFF1C001F111F58
:100D00000A94D2F7ED82FE820F831887CE1ADF0A8B
:100D1000DC82CB821A82CE0101960E94E2062896DE
:100D2000EAE00C94CE08EF92FF920F931F937B01A1
:100D30008C0180E0E81680E0F80681E0080780E09A
:100D4000180788F48FEFE816F1040105110531F05A
:100D500028F088E090E0A0E0B0E017C080E090E0EC
:100D6000A0E0B0E012C080E0E81680E0F80680E085
:100D7000080781E0180728F088E190E0A0E0B0E0E3
:100D800004C080E190E0A0E0B0E020E230E040E08C
:100D900050E0281B390B4A0B5B0B04C016950795D6
:100DA000F794E7948A95D2F7F701E85FFE4F8081C8
:100DB000281B310941095109C9011F910F91FF9069
:100DC000EF900895DF92EF92FF920F931F93FC0133
:100DD000E480F58006811781D1808081823048F4DB
:100DE00080E090E0A0E1B0E0E82AF92A0A2B1B2B72
:100DF000A5C0843009F49FC0823021F4EE24FF2482
:100E0000870105C0E114F1040105110519F4E0E0C2
:100E1000F0E096C0628173819FEF623879070CF031
:100E20005BC022E83FEF261B370B2A3131052CF03F
:100E300020E030E040E050E02AC0B801A701022ED7
:100E400004C076956795579547950A94D2F781E047
:100E500090E0A0E0B0E004C0880F991FAA1FBB1F5C
:100E60002A95D2F70197A109B1098E219F21A023CC
:100E7000B1230097A105B10521F081E090E0A0E049
:100E8000B0E09A01AB01282B392B4A2B5B2BDA01FE
:100E9000C9018F779070A070B07080349105A10562
:100EA000B10539F427FF09C0205C3F4F4F4F5F4F1A
:100EB00004C0215C3F4F4F4F5F4FE0E0F0E0203037
:100EC000A0E03A07A0E04A07A0E45A0710F0E1E0EA
:100ED000F0E079018A0127C06038710564F5FB01F3
:100EE000E158FF4FD801C7018F779070A070B070A4
:100EF00080349105A105B10539F4E7FE0DC080E409
:100F000090E0A0E0B0E004C08FE390E0A0E0B0E0AB
:100F1000E80EF91E0A1F1B1F17FF05C0169507953F
:100F2000F794E794319687E016950795F794E79440
:100F30008A95D1F705C0EE24FF248701EFEFF0E09A
:100F40006E2F679566276795902F9F77D794DD243E
:100F5000D7948E2F8695492F462B582F5D29B701A0
:100F6000CA011F910F91FF90EF90DF900895FC014F
:100F7000DB01408151812281622F6F7770E0221F57
:100F80002227221F9381892F880F822B282F30E060
:100F9000991F9927991F11969C9311972115310537
:100FA000A9F5411551056105710511F482E037C0BD
:100FB00082E89FEF13969C938E9312979A01AB0150
:100FC00067E0220F331F441F551F6A95D1F783E056
:100FD0008C930DC0220F331F441F551F12968D9105
:100FE0009C911397019713969C938E9312972030A0
:100FF00080E0380780E0480780E4580758F31496EB
:101000002D933D934D935C93179708952F3F310592
:1010100079F4411551056105710519F484E08C934B
:10102000089564FF03C081E08C9312C01C9210C02D
:101030002F57304013963C932E93129783E08C9356
:1010400087E0440F551F661F771F8A95D1F770649C
:1010500014964D935D936D937C93179708951F930A
:10106000DC01FB019C91923008F447C08081823002
:1010700008F443C0943051F411961C91843099F5D2
:101080008181682F70E0611B71093FC0843021F0BD
:10109000923031F48230B9F18181882389F12DC0F9
:1010A00011961C9111978230F1F081811817D9F4B3
:1010B00012962D913C911397828193818217930709
:1010C00094F028173907BCF014968D919D910D90DE
:1010D000BC91A02D2481358146815781281739077D
:1010E0004A075B0718F4112341F00AC082179307DF
:1010F000A407B50740F4112319F061E070E005C0C2
:101100006FEF7FEF02C060E070E0CB011F910895A8
:10111000A1E21A2EAA1BBB1BFD010DC0AA1FBB1FFB
:10112000EE1FFF1FA217B307E407F50720F0A21B6D
:10113000B30BE40BF50B661F771F881F991F1A94DA
:1011400069F760957095809590959B01AC01BD0104
:10115000CF0108952F923F924F925F926F927F92AC
:101160008F929F92AF92BF92CF92DF92EF92FF92B7
:101170000F931F93CF93DF93CDB7DEB7CA1BDB0B63
:101180000FB6F894DEBF0FBECDBF09942A88398808
:1011900048885F846E847D848C849B84AA84B9840F
:1011A000C884DF80EE80FD800C811B81AA81B9811B
:1011B000CE0FD11D0FB6F894DEBF0FBECDBFED012F
:0611C0000895F894FFCF32
:1011C6000000000000000000000102020303030308
:1011D60004040404040404040505050505050505C1
:1011E60005050505050505050606060606060606A1
:1011F6000606060606060606060606060606060689
:101206000606060606060606070707070707070770
:101216000707070707070707070707070707070758
:101226000707070707070707070707070707070748
:101236000707070707070707070707070707070738
:101246000707070707070707080808080808080820
:101256000808080808080808080808080808080808
:1012660008080808080808080808080808080808F8
:1012760008080808080808080808080808080808E8
:1012860008080808080808080808080808080808D8
:1012960008080808080808080808080808080808C8
:1012A60008080808080808080808080808080808B8
:1012B60008080808080808080808080808080808A8
:0812C6000808080808080808E0
:00000001FF
